{
  "contractName": "ResearchCollaborationPlatform",
  "abi": [
    {
      "anonymous": false,
      "inputs": [
        {
          "indexed": true,
          "internalType": "uint256",
          "name": "topicIndex",
          "type": "uint256"
        }
      ],
      "name": "TopicClosed",
      "type": "event"
    },
    {
      "anonymous": false,
      "inputs": [
        {
          "indexed": true,
          "internalType": "uint256",
          "name": "topicIndex",
          "type": "uint256"
        },
        {
          "indexed": false,
          "internalType": "string",
          "name": "topic",
          "type": "string"
        },
        {
          "indexed": true,
          "internalType": "address",
          "name": "initiator",
          "type": "address"
        }
      ],
      "name": "TopicCreated",
      "type": "event"
    },
    {
      "anonymous": false,
      "inputs": [
        {
          "indexed": true,
          "internalType": "uint256",
          "name": "topicIndex",
          "type": "uint256"
        },
        {
          "indexed": true,
          "internalType": "address",
          "name": "contributor",
          "type": "address"
        }
      ],
      "name": "TopicJoined",
      "type": "event"
    },
    {
      "inputs": [
        {
          "internalType": "uint256",
          "name": "",
          "type": "uint256"
        }
      ],
      "name": "researchTopics",
      "outputs": [
        {
          "internalType": "string",
          "name": "topic",
          "type": "string"
        },
        {
          "internalType": "address",
          "name": "initiator",
          "type": "address"
        },
        {
          "internalType": "uint256",
          "name": "contributorsCount",
          "type": "uint256"
        },
        {
          "internalType": "bool",
          "name": "isOpen",
          "type": "bool"
        }
      ],
      "stateMutability": "view",
      "type": "function"
    },
    {
      "inputs": [
        {
          "internalType": "address",
          "name": "",
          "type": "address"
        }
      ],
      "name": "researchers",
      "outputs": [
        {
          "internalType": "string",
          "name": "name",
          "type": "string"
        },
        {
          "internalType": "bool",
          "name": "isRegistered",
          "type": "bool"
        },
        {
          "internalType": "uint256",
          "name": "contributionCount",
          "type": "uint256"
        }
      ],
      "stateMutability": "view",
      "type": "function"
    },
    {
      "inputs": [
        {
          "internalType": "string",
          "name": "_name",
          "type": "string"
        }
      ],
      "name": "createAccount",
      "outputs": [],
      "stateMutability": "nonpayable",
      "type": "function"
    },
    {
      "inputs": [
        {
          "internalType": "string",
          "name": "_topic",
          "type": "string"
        }
      ],
      "name": "createTopic",
      "outputs": [],
      "stateMutability": "nonpayable",
      "type": "function"
    },
    {
      "inputs": [
        {
          "internalType": "uint256",
          "name": "_topicIndex",
          "type": "uint256"
        }
      ],
      "name": "joinTopic",
      "outputs": [],
      "stateMutability": "nonpayable",
      "type": "function"
    },
    {
      "inputs": [
        {
          "internalType": "uint256",
          "name": "_topicIndex",
          "type": "uint256"
        }
      ],
      "name": "closeTopic",
      "outputs": [],
      "stateMutability": "nonpayable",
      "type": "function"
    }
  ],
  "bytecode": "0x608060405234801561000f575f80fd5b506115c08061001d5f395ff3fe608060405234801561000f575f80fd5b5060043610610060575f3560e01c806301bc237d14610064578063298daf5b1461009657806347504c2a146100b25780637b84a88e146100e5578063a589f4d614610101578063df98fe151461011d575b5f80fd5b61007e60048036038101906100799190610afd565b610139565b60405161008d93929190610be4565b60405180910390f35b6100b060048036038101906100ab9190610d4c565b6101f0565b005b6100cc60048036038101906100c79190610dbd565b61035c565b6040516100dc9493929190610df7565b60405180910390f35b6100ff60048036038101906100fa9190610d4c565b610448565b005b61011b60048036038101906101169190610dbd565b610635565b005b61013760048036038101906101329190610dbd565b610931565b005b5f602052805f5260405f205f91509050805f01805461015790610e6e565b80601f016020809104026020016040519081016040528092919081815260200182805461018390610e6e565b80156101ce5780601f106101a5576101008083540402835291602001916101ce565b820191905f5260205f20905b8154815290600101906020018083116101b157829003601f168201915b505050505090806001015f9054906101000a900460ff16908060020154905083565b5f815111610233576040517f08c379a000000000000000000000000000000000000000000000000000000000815260040161022a90610ee8565b60405180910390fd5b5f803373ffffffffffffffffffffffffffffffffffffffff1673ffffffffffffffffffffffffffffffffffffffff1681526020019081526020015f206001015f9054906101000a900460ff16156102bf576040517f08c379a00000000000000000000000000000000000000000000000000000000081526004016102b690610f50565b60405180910390fd5b60405180606001604052808281526020016001151581526020015f8152505f803373ffffffffffffffffffffffffffffffffffffffff1673ffffffffffffffffffffffffffffffffffffffff1681526020019081526020015f205f820151815f01908161032c919061110b565b506020820151816001015f6101000a81548160ff0219169083151502179055506040820151816002015590505050565b6001818154811061036b575f80fd5b905f5260205f2090600502015f91509050805f01805461038a90610e6e565b80601f01602080910402602001604051908101604052809291908181526020018280546103b690610e6e565b80156104015780601f106103d857610100808354040283529160200191610401565b820191905f5260205f20905b8154815290600101906020018083116103e457829003601f168201915b505050505090806001015f9054906101000a900473ffffffffffffffffffffffffffffffffffffffff1690806002015490806003015f9054906101000a900460ff16905084565b5f803373ffffffffffffffffffffffffffffffffffffffff1673ffffffffffffffffffffffffffffffffffffffff1681526020019081526020015f206001015f9054906101000a900460ff166104d3576040517f08c379a00000000000000000000000000000000000000000000000000000000081526004016104ca9061124a565b60405180910390fd5b5f815111610516576040517f08c379a000000000000000000000000000000000000000000000000000000000815260040161050d906112b2565b60405180910390fd5b6001808160018154018082558091505003905f5260205f209050505f600180808054905061054491906112fd565b8154811061055557610554611330565b5b905f5260205f209060050201905081815f019081610573919061110b565b5033816001015f6101000a81548173ffffffffffffffffffffffffffffffffffffffff021916908373ffffffffffffffffffffffffffffffffffffffff1602179055506001816003015f6101000a81548160ff0219169083151502179055503373ffffffffffffffffffffffffffffffffffffffff16600180805490506105fa91906112fd565b7f516a45f152143f68f798226e0a0d16f7515f4a110d3260f83e01841a23b4e64184604051610629919061135d565b60405180910390a35050565b5f803373ffffffffffffffffffffffffffffffffffffffff1673ffffffffffffffffffffffffffffffffffffffff1681526020019081526020015f206001015f9054906101000a900460ff166106c0576040517f08c379a00000000000000000000000000000000000000000000000000000000081526004016106b79061124a565b60405180910390fd5b6001805490508110610707576040517f08c379a00000000000000000000000000000000000000000000000000000000081526004016106fe906113c7565b60405180910390fd5b6001818154811061071b5761071a611330565b5b905f5260205f2090600502016003015f9054906101000a900460ff16610776576040517f08c379a000000000000000000000000000000000000000000000000000000000815260040161076d9061142f565b60405180910390fd5b5f6001828154811061078b5761078a611330565b5b905f5260205f2090600502019050806004015f3373ffffffffffffffffffffffffffffffffffffffff1673ffffffffffffffffffffffffffffffffffffffff1681526020019081526020015f205f9054906101000a900460ff1615610825576040517f08c379a000000000000000000000000000000000000000000000000000000000815260040161081c90611497565b60405180910390fd5b6001816004015f3373ffffffffffffffffffffffffffffffffffffffff1673ffffffffffffffffffffffffffffffffffffffff1681526020019081526020015f205f6101000a81548160ff021916908315150217905550806002015f815480929190610890906114b5565b91905055505f803373ffffffffffffffffffffffffffffffffffffffff1673ffffffffffffffffffffffffffffffffffffffff1681526020019081526020015f206002015f8154809291906108e4906114b5565b91905055503373ffffffffffffffffffffffffffffffffffffffff16827f62c2e20009cc97b9abfd18a3551db633195cbdce8e2960088527b637b32b675060405160405180910390a35050565b6001805490508110610978576040517f08c379a000000000000000000000000000000000000000000000000000000000815260040161096f906113c7565b60405180910390fd5b6001818154811061098c5761098b611330565b5b905f5260205f2090600502016001015f9054906101000a900473ffffffffffffffffffffffffffffffffffffffff1673ffffffffffffffffffffffffffffffffffffffff163373ffffffffffffffffffffffffffffffffffffffff1614610a28576040517f08c379a0000000000000000000000000000000000000000000000000000000008152600401610a1f9061156c565b60405180910390fd5b5f60018281548110610a3d57610a3c611330565b5b905f5260205f2090600502016003015f6101000a81548160ff021916908315150217905550807fdf57cf3e284fc3ca501a2bffb5d2a40d312a90fd3bdb17751663f8be3add1e8c60405160405180910390a250565b5f604051905090565b5f80fd5b5f80fd5b5f73ffffffffffffffffffffffffffffffffffffffff82169050919050565b5f610acc82610aa3565b9050919050565b610adc81610ac2565b8114610ae6575f80fd5b50565b5f81359050610af781610ad3565b92915050565b5f60208284031215610b1257610b11610a9b565b5b5f610b1f84828501610ae9565b91505092915050565b5f81519050919050565b5f82825260208201905092915050565b5f5b83811015610b5f578082015181840152602081019050610b44565b5f8484015250505050565b5f601f19601f8301169050919050565b5f610b8482610b28565b610b8e8185610b32565b9350610b9e818560208601610b42565b610ba781610b6a565b840191505092915050565b5f8115159050919050565b610bc681610bb2565b82525050565b5f819050919050565b610bde81610bcc565b82525050565b5f6060820190508181035f830152610bfc8186610b7a565b9050610c0b6020830185610bbd565b610c186040830184610bd5565b949350505050565b5f80fd5b5f80fd5b7f4e487b71000000000000000000000000000000000000000000000000000000005f52604160045260245ffd5b610c5e82610b6a565b810181811067ffffffffffffffff82111715610c7d57610c7c610c28565b5b80604052505050565b5f610c8f610a92565b9050610c9b8282610c55565b919050565b5f67ffffffffffffffff821115610cba57610cb9610c28565b5b610cc382610b6a565b9050602081019050919050565b828183375f83830152505050565b5f610cf0610ceb84610ca0565b610c86565b905082815260208101848484011115610d0c57610d0b610c24565b5b610d17848285610cd0565b509392505050565b5f82601f830112610d3357610d32610c20565b5b8135610d43848260208601610cde565b91505092915050565b5f60208284031215610d6157610d60610a9b565b5b5f82013567ffffffffffffffff811115610d7e57610d7d610a9f565b5b610d8a84828501610d1f565b91505092915050565b610d9c81610bcc565b8114610da6575f80fd5b50565b5f81359050610db781610d93565b92915050565b5f60208284031215610dd257610dd1610a9b565b5b5f610ddf84828501610da9565b91505092915050565b610df181610ac2565b82525050565b5f6080820190508181035f830152610e0f8187610b7a565b9050610e1e6020830186610de8565b610e2b6040830185610bd5565b610e386060830184610bbd565b95945050505050565b7f4e487b71000000000000000000000000000000000000000000000000000000005f52602260045260245ffd5b5f6002820490506001821680610e8557607f821691505b602082108103610e9857610e97610e41565b5b50919050565b7f4e616d652063616e6e6f7420626520656d7074790000000000000000000000005f82015250565b5f610ed2601483610b32565b9150610edd82610e9e565b602082019050919050565b5f6020820190508181035f830152610eff81610ec6565b9050919050565b7f5265736561726368657220616c726561647920726567697374657265640000005f82015250565b5f610f3a601d83610b32565b9150610f4582610f06565b602082019050919050565b5f6020820190508181035f830152610f6781610f2e565b9050919050565b5f819050815f5260205f209050919050565b5f6020601f8301049050919050565b5f82821b905092915050565b5f60088302610fca7fffffffffffffffffffffffffffffffffffffffffffffffffffffffffffffffff82610f8f565b610fd48683610f8f565b95508019841693508086168417925050509392505050565b5f819050919050565b5f61100f61100a61100584610bcc565b610fec565b610bcc565b9050919050565b5f819050919050565b61102883610ff5565b61103c61103482611016565b848454610f9b565b825550505050565b5f90565b611050611044565b61105b81848461101f565b505050565b5b8181101561107e576110735f82611048565b600181019050611061565b5050565b601f8211156110c35761109481610f6e565b61109d84610f80565b810160208510156110ac578190505b6110c06110b885610f80565b830182611060565b50505b505050565b5f82821c905092915050565b5f6110e35f19846008026110c8565b1980831691505092915050565b5f6110fb83836110d4565b9150826002028217905092915050565b61111482610b28565b67ffffffffffffffff81111561112d5761112c610c28565b5b6111378254610e6e565b611142828285611082565b5f60209050601f831160018114611173575f8415611161578287015190505b61116b85826110f0565b8655506111d2565b601f19841661118186610f6e565b5f5b828110156111a857848901518255600182019150602085019450602081019050611183565b868310156111c557848901516111c1601f8916826110d4565b8355505b6001600288020188555050505b505050505050565b7f596f75206d7573742062652061207265676973746572656420726573656172635f8201527f6865720000000000000000000000000000000000000000000000000000000000602082015250565b5f611234602383610b32565b915061123f826111da565b604082019050919050565b5f6020820190508181035f83015261126181611228565b9050919050565b7f546f7069632063616e6e6f7420626520656d70747900000000000000000000005f82015250565b5f61129c601583610b32565b91506112a782611268565b602082019050919050565b5f6020820190508181035f8301526112c981611290565b9050919050565b7f4e487b71000000000000000000000000000000000000000000000000000000005f52601160045260245ffd5b5f61130782610bcc565b915061131283610bcc565b925082820390508181111561132a576113296112d0565b5b92915050565b7f4e487b71000000000000000000000000000000000000000000000000000000005f52603260045260245ffd5b5f6020820190508181035f8301526113758184610b7a565b905092915050565b7f496e76616c696420746f70696320696e646578000000000000000000000000005f82015250565b5f6113b1601383610b32565b91506113bc8261137d565b602082019050919050565b5f6020820190508181035f8301526113de816113a5565b9050919050565b7f526573656172636820746f706963206973206e6f74206f70656e0000000000005f82015250565b5f611419601a83610b32565b9150611424826113e5565b602082019050919050565b5f6020820190508181035f8301526114468161140d565b9050919050565b7f596f752061726520616c7265616479206120636f6e7472696275746f720000005f82015250565b5f611481601d83610b32565b915061148c8261144d565b602082019050919050565b5f6020820190508181035f8301526114ae81611475565b9050919050565b5f6114bf82610bcc565b91507fffffffffffffffffffffffffffffffffffffffffffffffffffffffffffffffff82036114f1576114f06112d0565b5b600182019050919050565b7f4f6e6c792074686520696e69746961746f722063616e20636c6f7365207468655f8201527f20746f7069630000000000000000000000000000000000000000000000000000602082015250565b5f611556602683610b32565b9150611561826114fc565b604082019050919050565b5f6020820190508181035f8301526115838161154a565b905091905056fea2646970667358221220a48afc21a26d1e27bcaeecb286077b4c46efd3dc69443bdea24eec40990a321a64736f6c63430008150033",
  "immutableReferences": {},
  "source": "// SPDX-License-Identifier: MIT\r\npragma solidity >=0.7.0 <0.9.0;\r\n\r\ncontract ResearchCollaborationPlatform {\r\n    // Researcher Struct\r\n    struct Researcher {\r\n        string name;\r\n        bool isRegistered;\r\n        uint256 contributionCount;\r\n    }\r\n\r\n    struct ResearchTopic {\r\n        string topic;\r\n        address initiator;\r\n        uint256 contributorsCount;\r\n        bool isOpen;\r\n        mapping(address => bool) contributors;\r\n    }\r\n\r\n    mapping(address => Researcher) public researchers;\r\n    ResearchTopic[] public researchTopics;\r\n\r\n    // Event for topic creation\r\n    event TopicCreated(uint256 indexed topicIndex, string topic, address indexed initiator);\r\n\r\n    // Event for joining a topic\r\n    event TopicJoined(uint256 indexed topicIndex, address indexed contributor);\r\n\r\n    // Event for closing a topic\r\n    event TopicClosed(uint256 indexed topicIndex);\r\n\r\n    // Modifier to check if the sender is a registered researcher\r\n    modifier onlyRegisteredResearcher() {\r\n        require(researchers[msg.sender].isRegistered, \"You must be a registered researcher\");\r\n        _;\r\n    }\r\n\r\n    // Create a new account for a researcher\r\n    function createAccount(string memory _name) external {\r\n        require(bytes(_name).length > 0, \"Name cannot be empty\");\r\n        require(!researchers[msg.sender].isRegistered, \"Researcher already registered\");\r\n\r\n        researchers[msg.sender] = Researcher(_name, true, 0);\r\n    }\r\n\r\n    // Create a new research topic\r\n    function createTopic(string memory _topic) external onlyRegisteredResearcher {\r\n        require(bytes(_topic).length > 0, \"Topic cannot be empty\");\r\n\r\n        researchTopics.push();\r\n        ResearchTopic storage newTopic = researchTopics[researchTopics.length - 1];\r\n        newTopic.topic = _topic;\r\n        newTopic.initiator = msg.sender;\r\n        newTopic.isOpen = true;\r\n\r\n        emit TopicCreated(researchTopics.length - 1, _topic, msg.sender);\r\n    }\r\n\r\n    // Join a research topic as a contributor\r\n    function joinTopic(uint256 _topicIndex) external onlyRegisteredResearcher {\r\n        require(_topicIndex < researchTopics.length, \"Invalid topic index\");\r\n        require(researchTopics[_topicIndex].isOpen, \"Research topic is not open\");\r\n\r\n        ResearchTopic storage topic = researchTopics[_topicIndex];\r\n        require(!topic.contributors[msg.sender], \"You are already a contributor\");\r\n\r\n        topic.contributors[msg.sender] = true;\r\n        topic.contributorsCount++;\r\n        researchers[msg.sender].contributionCount++;\r\n\r\n        emit TopicJoined(_topicIndex, msg.sender);\r\n    }\r\n\r\n    // Close a research topic\r\n    function closeTopic(uint256 _topicIndex) external {\r\n        require(_topicIndex < researchTopics.length, \"Invalid topic index\");\r\n        require(msg.sender == researchTopics[_topicIndex].initiator, \"Only the initiator can close the topic\");\r\n\r\n        researchTopics[_topicIndex].isOpen = false;\r\n\r\n        emit TopicClosed(_topicIndex);\r\n    }\r\n}\r\n",
  "sourcePath": "C:\\Users\\91949\\Desktop\\research-collaboration-platform\\contracts\\Research_contract.sol",
  "compiler": {
    "name": "solc",
    "version": "0.8.21+commit.d9974bed.Emscripten.clang"
  },
  "schemaVersion": "3.4.16",
  "updatedAt": "2024-02-27T09:24:30.883Z",
  "devdoc": {
    "kind": "dev",
    "methods": {},
    "version": 1
  },
  "userdoc": {
    "kind": "user",
    "methods": {},
    "version": 1
  }
}